:03000000020006F5
:100003000200347A017530007531007532007533A2
:10001300007534007535007536007537007540007E
:100023007C00D2A8D2AFD2881200B97800D8FE8063
:10003300F720B705120040800312004C320541E55A
:100043004170020540120059221541E541B4FF02F7
:100053001540120059228540428541437842795028
:10006300120085E550F533E551540FF535E551C4DC
:10007300540FF534E552540FF537E552C4540FF5D8
:100083003622E4F709F709F7C0077F10C308E63300
:10009300F618E633F6C001E737D4F719E737D4F794
:1000A30019E737D4F7D001DFE3D007223F065B4FD0
:1000B300666D7D077F6FE538F5A09000AF7430253E
:0C00C30038F8E693F59005385338072212
:00000001FF
