:03000000020030CB
:0300030002008B6D
:03000B000200A34D
:10003000758160751C0075100075110875120075CA
:1000400013007514007515007516007517007518E6
:1000500000751900751A00751B00751D00751E00CE
:10006000751F00752000752100758901D28CD2A9F9
:10007000758CF8758ACDD2A8D2AFD28830B706D2A7
:10008000A8D28880F7C2A8C28880F1C0D0C0E0C3DF
:10009000E5203401F520E5213400F521051FD0E0ED
:1000A000D0D0321200D1051E758CF8758ACDE51EB0
:1000B000B40A131200FD751E00051DE51DB464068B
:1000C000751D0012020E323F065B4F666D7D077F85
:1000D0006FE51CF5A09000C77410251CF8E693F599
:1000E00090E51CB40102D297B40502D297B40A027B
:1000F000D297051CE51CB40C03751C0022E5207585
:10010000F0B7A4F52585F024E52175F0B7A42524E2
:10011000F524740035F0F52375406475410075428F
:100120000075430085234485244585254675470091
:10013000784179427E027F061202948546238547E4
:10014000247823792812032F53280F852814E529B2
:1001500054F0C4F51553290F852916E52A54F0C427
:10016000F517E514B4000CE515B40002410DB40117
:1001700002410DE51775F006A475F00A8485F05468
:10018000F540781679537A03E675F006A425407594
:05019000F00A84A7F055
:10019500F5401819DAED854050E51775F002A4759C
:1001A500F00A8485F058F540781679577A03E67594
:1001B500F002A4254075F00A84A7F0F5401819DA75
:1001C500ED785379587A04754000E627254075F097
:1001D5000A84F540A6F01819DAF0E552240875F0FE
:1001E5000A8485F052F540E5512402254075F00A50
:1001F5008485F051F540E5502540F5508550108532
:10020500511185521285531322E51FB40002800255
:10021500151FC375320075330075340075360075CA
:100225003700753800753900E51F75F0BCA4F53445
:1002350085F033E51F75F019A43533F533E5F03452
:1002450000F532C3E47A18E53433F534E53333F594
:1002550033E53233F532E5393539D4F539E5383515
:1002650038D4F538E5373537D4F537E5363536D46E
:10027500F536DAD3E4781BE538D60303030318D63D
:1002850018E537D60303030318D6C3751F0022C02C
:1002950005EFC39E75F008A4FDC007C001EF291442
:0102A500F95F
:1002A600120327D001D0074018C006C001C000E9DC
:1002B6002EF919E7961918DEFAD000D001D00640BB
:1002C6001CC006C001C000E92EF919C3E796F7194C
:1002D60018DEF9EF29F907D000D001D006DDB9E71D
:1002E60020E72BC007C001EE2914F9850607120383
:1002F60027D001D007C3C006C001C000E92EF919F6
:10030600E7961918DEFAD000D001D0064010E92F82
:10031600F919EFC39EFFD3E73400F719DFF9D005CB
:1003260022C3E733F719DFFA22E4F709F709F7C022
:10033600077F10C308E633F618E633F6C001E73741
:10034600D4F719E737D4F719E737D4F7D001DFE345
:03035600D00722AB
:00000001FF
