:03000000020006F5
:100003000200477A0175300075310075320075338F
:1000130000753400753500753600753700753D0081
:100023007C00D2A8D2AFD28812014C7800D8FE004F
:100033001200571200A012006C1200C812008D1299
:1000430000F080E430B70312004E320541E5417001
:1000530002054022E54175F0B7A4F54585F04A75E0
:10006300F0B7E540A4254AF544E54575F01AA4F533
:100073004985F04A75F01AE544A4254AF548E5494F
:100083003420F549E5483403F548E675F0B7A4F59F
:100093004585F04A75F0B7E7A4254AF54485404203
:1000A30085414378427950120118E551540FF535D3
:1000B300E551C4540FF534E552540FF537E552C4F6
:1000C300540FF536228548428549437842795012C8
:1000D3000118E551540FF531E551C4540FF530E5DE
:1000E30052540FF533E552C4540FF532228546427C
:1000F30085474378427950120118E551540FF53979
:10010300E551C4540FF538E552540FF53BE552C49D
:10011300540FF53A22E4F709F709F7C0077F10C334
:0B01230008E633F618E633F6C001E7EB
:10012E0037D4F719E737D4F719E737D4F7D001DF0B
:10013E00E3D007223F065B4F666D7D077F6FE53C80
:10014E00F5A09001427430253CF8E693F590053CFD
:09015E00E53CB40C03533C1022F3
:00000001FF
